:020000040800F2
:1000000000500020850200080D0300080D030008C1
:100010000D0300080D0300080D0300080000000098
:100020000000000000000000000000000D030008B8
:100030000D030008000000000D0300080D03000878
:100040000D0300080D0300080D0300080D03000850
:100050000D0300080D0300080D0300080D03000840
:100060000D0300080D0300080D0300080D03000830
:100070000D0300080D0300080D0300080D03000820
:100080000D0300080D0300080D0300080D03000810
:100090000D0300080D0300080D0300080D03000800
:1000A0000D0300080D0300080D0300080D030008F0
:1000B0000D0300080D0300080D0300080D030008E0
:1000C0000D0300080D0300080D0300080D030008D0
:1000D0000D0300080D0300080D0300080D030008C0
:1000E0000D0300080D030008000000000D030008C8
:1000F0000D0300080D0300080D0300080D030008A0
:100100000D0300080D0300080D0300080D0300088F
:100110000D0300080D0300080D0300080D0300087F
:100120000D0300080D0300080D0300080D0300086F
:1001300010B5054C237833B9044B13B10448AFF321
:1001400000800123237010BD840000200000000007
:100150008C12000808B5034B1BB103490348AFF3E9
:10016000008008BD00000000880000208C120008FC
:10017000A3F5803A704700BF174B002B08BF134B05
:100180009D46FFF7F5FF00218B460F461348144AA2
:10019000121A00F02BFA0E4B002B00D098470D4B93
:1001A000002B00D098470020002104000D000D48CE
:1001B000002802D00C48AFF3008000F0F3F92000D3
:1001C000290000F013F800F0D9F900BF0000080082
:1001D000000000000000000000000000840000207B
:1001E00020030020000000000000000080B582B065
:1001F00000AF204800F070FA1F4B1B689A691E4B35
:100200001B6842F010029A611C4B1B685A681B4B1A
:100210001B6822F470025A60184B1B685A68174B0F
:100220001B6842F480125A60144B1B68DA68134B47
:100230001B6842F40052DA6000237B6002E07B68B6
:1002400001337B607B680E4A9342F8DD0B4B1B68E1
:10025000DA680A4B1B6822F40052DA6000233B6024
:1002600002E03B6801333B603B68054A9342F8DD9E
:10027000DAE700BFE0110008080000200C000020B1
:100280009F86010080B586B000AF1B4A1B4BD31A76
:100290007B601A4B7B611A4B3B610023FB600AE0D9
:1002A0003A69531C3B617B69591C796112781A7059
:1002B000FB680133FB60FA687B689A42F0D3114A0D
:1002C000114BD31A7B60104B7B610023BB6007E0AE
:1002D0007B695A1C7A6100221A70BB680133BB60CB
:1002E000BA687B689A42F3D300F05CF9FFF77EFFAF
:1002F00000BF1837BD4680BD7C00002000000020F4
:1003000098120008200300208400002080B400AF71
:10031000FEE700BF80B400AF00BFBD4680BC7047A1
:1003200080B400AF01231846BD4680BC704780B53D
:1003300082B000AF7860396000F01AF903461622E7
:100340001A604FF0FF3318460837BD4680BD80B5B0
:1003500082B000AF78604FF0FF317868FFF7E7FFB9
:10036000FEE780B586B000AFF860B9607A60002320
:100370007B610AE0AFF300800146BB685A1CBA609B
:10038000CAB21A707B6901337B617A697B689A42D1
:10039000F0DB7B6818461837BD4680BD80B586B057
:1003A00000AFF860B9607A6000237B6109E0BB6848
:1003B0005A1CBA601B781846AFF300807B69013382
:1003C0007B617A697B689A42F1DB7B681846183753
:1003D000BD4680BD80B483B000AF78604FF0FF337E
:1003E00018460C37BD4680BC704780B483B000AF60
:1003F000786039603B684FF400525A600023184619
:100400000C37BD4680BC704780B483B000AF7860C5
:10041000012318460C37BD4680BC704780B485B0B8
:1004200000AFF860B9607A60002318461437BD4603
:1004300080BC70470EB480B482B000AF78604FF0DB
:10044000FF3318460837BD4680BC03B0704780B5FF
:1004500082B000AF786000F08BF803460A221A6081
:100460004FF0FF3318460837BD4680BD80B582B0D7
:1004700000AF786000F07CF8034602221A604FF06B
:10048000FF3318460837BD4680BD80B483B000AF47
:1004900078604FF0FF3318460C37BD4680BC70477C
:1004A00080B483B000AF786039603B684FF400528D
:1004B0005A60002318460C37BD4680BC704780B593
:1004C00082B000AF7860396000F052F803461F2216
:1004D0001A604FF0FF3318460837BD4680BD80B51F
:1004E00000AF00F045F803460B221A604FF0FF33CF
:1004F000184680BD80B584B000AFF860B9607A60FE
:1005000000F036F803460C221A604FF0FF3318460D
:100510001037BD4680BD80B584B000AF7860124B07
:100520001B68002B02D1104B104A1A600E4B1B683F
:10053000FB600D4B1A687B6813446A46934207D9E7
:1005400000F016F803460C221A604FF0FF3306E065
:10055000054B1A687B681344034A1360FB6818460E
:100560001037BD4680BD00BF0403002020030020DB
:10057000014B1868704700BF1800002008B5074BF2
:10058000044613B10021AFF30080054B1868836A5D
:1005900003B198472046FFF7DAFE00BF00000000D5
:1005A0001012000870B500260C4D0D4C641BA410F1
:1005B000A64209D100F05EFE00260A4D0A4C641BDB
:1005C000A410A64205D170BD55F8043B98470136EA
:1005D000EEE755F8043B98470136F2E700000000CB
:1005E000000000000000000000000000034602447C
:1005F000934200D1704703F8011BF9E770B50E462E
:10060000054618B183690BB900F07CFAAB69AC6898
:1006100013B9284600F076FA2C4B9C4220D16C6826
:10062000636EDB0705D4A389980502D4A06D00F0A2
:1006300044FBA38919071DD52369DBB1013EA368DB
:1006400016F8011F013BA36039BB002B38DA2246A4
:100650000A21284600F048F8013011D00A2511E09F
:100660001B4B9C4201D1AC68DAE71A4B9C4208BF95
:10067000EC68D5E72146284600F090F80028DDD048
:100680004FF0FF35636EDA0705D4A3899B0502D4CA
:10069000A06D00F018FB284670BD002B04DAA2699B
:1006A0009A4206DC0A2904D023685A1C2260197079
:1006B000C5E72246284600F017F80130BFD1DFE732
:1006C0000A2523685A1C22601D70DBE734120008DB
:1006D0005412000814120008024B01461868FFF774
:1006E0008DBF00BF18000020F8B50E461446054621
:1006F00018B183690BB900F005FA214B9C422BD14C
:100700006C68A369A360A3891A072FD523696BB30B
:1007100023692068F6B2C01A63693746834204DC55
:100720002146284600F02AF930BBA3680130013B7E
:10073000A36023685A1C22601E706369834204D040
:10074000A389DB0706D50A2E04D12146284600F0EE
:1007500015F988B93846F8BD0A4B9C4201D1AC68FE
:10076000CFE7094B9C4208BFEC68CAE72146284600
:1007700000F014F80028CBD04FF0FF37EAE700BFB5
:10078000341200085412000814120008024B0A46E2
:1007900001461868FFF7A8BF18000020324B70B55B
:1007A0001D6806460C4625B1AB6913B9284600F012
:1007B000A9F92E4B9C420FD16C68A389B4F90C2087
:1007C00019072CD4DD0611D40923336042F040030D
:1007D0004FF0FF30A3813EE0254B9C4201D1AC6835
:1007E000EBE7244B9C4208BFEC68E6E7580712D5BC
:1007F000616B41B104F14403994202D0304600F0EC
:10080000C9FA00236363A38923F02403A38100238F
:10081000636023692360A38943F00803A3812369EC
:100820004BB9A38903F42073B3F5007F03D02146AD
:10083000304600F06FFAA089B4F90C2010F00103E3
:100840000AD00023A36063695B42A361236943B9B3
:1008500010F08000BAD170BD810758BF6369A360F2
:10086000F4E70020F7E700BF18000020341200086A
:1008700054120008141200088A89F8B505461007BA
:100880000C4657D44B68002B04DC0B6C002B01DCAE
:100890000020F8BDE66A002EFAD0002312F4805240
:1008A0002F682B6032D0606DA3895A0705D5636825
:1008B000C01A636B0BB1236CC01A00230246E66AB0
:1008C0002846216AB047431CA38906D129681D29FF
:1008D0002CD8294ACA40D60728D50022626022694E
:1008E000D904226004D5421C01D12B6803B960658C
:1008F000616B2F600029CBD004F14403994202D0F0
:10090000284600F047FA00206063C2E7216A01230D
:100910002846B047411CC7D12B68002BC4D01D2BE3
:1009200001D0162B01D12F60B2E7A38943F0400319
:10093000A381AEE70F69002FAAD0930718BF002349
:100940000E6808BF4B69F61B0F608B60002E9FDDA1
:1009500033463A462846216AD4F828C0E0470028A2
:1009600006DCA3894FF0FF3043F04003A38190E7FA
:100970000744361AEAE700BF0100402038B50B698A
:1009800005460C4613B90025284638BD18B18369C1
:100990000BB900F0B7F8144B9C421BD16C68B4F94A
:1009A0000C30002BEFD0626ED00704D4990502D42E
:1009B000A06D00F082F928462146FFF75DFF636EC7
:1009C0000546DA07E0D4A3899B05DDD4A06D00F0CD
:1009D0007AF9D9E7054B9C4201D1AC68DFE7044BBB
:1009E0009C4208BFEC68DAE7341200085412000891
:1009F00014120008014620B9044B0549186800F09C
:100A000038B9044B1868FFF7B9BF00BF10120008CF
:100A10007D09000818000020002310B50446C0E935
:100A20000033C0E90433836081814366C2818361FE
:100A3000194608225C30FFF7D9FD054B246263623A
:100A4000044BA362044BE362044B236310BD00BF5D
:100A50006D0F0008930F0008CB0F0008EF0F000880
:100A6000014900F006B900BF7D09000808B5436ED2
:100A7000DA0705D483899B0502D4806D00F01DF947
:100A8000002008BD08B5436EDA0705D483899B05AD
:100A900002D4806D00F017F9002008BD682270B5FF
:100AA0004D1E55430E4605F1740100F0DBF9044676
:100AB00040B10021C0E900160C30A06005F16802C9
:100AC000FFF794FD204670BD014B1868FFF7C8BFC3
:100AD00010120008014800F0F0B800BF0E0300201B
:100AE000014800F0F0B800BF0E030020014800F0FC
:100AF000E4B800BF0F030020014800F0E4B800BFD5
:100B00000F03002010B50446FFF7F0FFA3691BB1E7
:100B1000BDE81040FFF7F0BFC4E912332365134B63
:100B2000134A1B68A262A34208BF0123204608BFE4
:100B3000A36100F01FF86060204600F01BF8A06081
:100B4000204600F017F800220421E0606068FFF7FB
:100B500063FF01220921A068FFF75EFF0222122134
:100B6000E068FFF759FF0123A361D1E710120008E5
:100B7000610A0008F8B50746FFF7ACFF1E4B1E6878
:100B8000B36913B93046FFF7BDFF4836D6E90134E3
:100B9000013B03D533680BB33668F7E7B4F90C5063
:100BA000D5B9164B04F15800E360656600F081F892
:100BB000FFF796FF08222946C4E90155C4E9045508
:100BC0002560A56104F15C00FFF710FDC4E90D5537
:100BD000C4E912552046F8BD6834D9E704213846E7
:100BE000FFF75CFF044630600028D5D1FFF778FF9F
:100BF0000C233B60EEE700BF101200080100FFFF6E
:100C000008B5FFF767FF034B03491868BDE80840C4
:100C100000F012B8180000206D0A000808B5044B57
:100C20000449186800F008F8BDE80840FFF758BF0D
:100C300018000020850A00082DE9F0410F46002623
:100C400000F14804D4E90185B8F1010805D524680C
:100C5000002CF7D13046BDE8F081AB89012B06D9D5
:100C6000B5F90E30013302D02846B847064368353F
:100C7000EAE72DE9F84306468846002700F14804D4
:100C8000D4E90195B9F1010905D52468002CF7D103
:100C90003846BDE8F883AB89012B07D9B5F90E308A
:100CA000013303D029463046C04707436835E9E79A
:100CB0007047704770477047704770470120704712
:100CC000012070477047704770B50E46B1F90E109D
:100CD000144600291D4696B008DA0022B6F90C30F9
:100CE0002A601A0610D44FF480630EE06A4600F0C2
:100CF000A5F90028F1DB019A02F47042A2F5005335
:100D00005A425A412A60EEE740230020236016B081
:100D100070BD00008B8973B59D0706460C4607D54C
:100D200004F14703236023610123636102B070BDB6
:100D30006A4601ABFFF7C8FF00990546304600F050
:100D400091F848B9B4F90C309A05EFD423F00303B5
:100D500043F00203A381E3E70D4BB362A389206054
:100D600043F08003A381009B20616361019B5BB121
:100D70003046B4F90E1000F073F928B1A38923F0BE
:100D8000030343F00103A381A0890543A581CDE7B7
:100D9000610A000838B50546002940D051F8043CE6
:100DA0000C1F002BB8BFE41800F07CF91C4A136834
:100DB00033B9636014602846BDE8384000F078B964
:100DC000A34208D9206821188B4201BF19685B68CB
:100DD00009182160EDE71A465B680BB1A342FAD906
:100DE00011685018A0420BD120680144501883426A
:100DF0001160E0D118685B68014411605360DAE764
:100E000002D90C232B60D6E7206821188B4201BF42
:100E100019685B680918216063605460CBE738BDCE
:100E20001403002070B50E4E0C463168054611B90A
:100E300000F08CF830602146284600F087F8431C0B
:100E40000AD0C41C24F00304A04207D0211A28466B
:100E500000F07CF8013001D14FF0FF34204670BD26
:100E6000180300202DE9F041CD1C25F003050835BD
:100E70000C2D38BF0C25002D074601DBA94205D9F2
:100E80000C2300263B603046BDE8F0812E4E00F07A
:100E900009F933681C4634BB29463846FFF7C2FFC0
:100EA000431C04464DD134682646002E40D12368A9
:100EB0003146384604EB030800F048F880453AD143
:100EC000216803356D1A25F0030508350C2D38BF50
:100ED0000C2538462946FFF7A5FF01302BD02368A3
:100EE0002B4423600EE02268521B1ED40B2A16D915
:100EF0006119A342256018BF5960636808BF31605B
:100F000062514B60384604F10B0600F0D1F826F030
:100F10000706231DF21AB6D09B1BA350B3E76268E5
:100F2000A3420CBF32605A60ECE723466468B2E724
:100F300034467668B9E70C2338463B6000F0B8F8D1
:100F4000A1E72560DEE700BF1403002038B50023C9
:100F5000054D044608462B60FFF7DDFA431C02D11D
:100F60002B6803B1236038BD1C03002010B50C466C
:100F7000B1F90E1000F0A2F80028ABBF636DA38991
:100F80001B1823F48053ACBF6365A38110BD002000
:100F900070472DE9F0411F468B890546DB050C465D
:100FA000164605D502230022B1F90E1000F068F8AC
:100FB000A389324623F48053A38128463B46B4F9E3
:100FC0000E10BDE8F04100F017B810B50C46B1F9AD
:100FD0000E1000F055F8431CA38915BF606523F47B
:100FE000805343F48053A38118BFA38110BDB1F98E
:100FF0000E1000F013B8000038B50446084611463C
:101000000022054D2A601A46FFF7C8F9431C02D199
:101010002B6803B1236038BD1C03002038B50023C2
:10102000054D044608462B60FFF7D4F9431C02D156
:101030002B6803B1236038BD1C03002038B50023A2
:10104000064D0446084611462B60FFF7CEF9431CB7
:1010500002D12B6803B1236038BD00BF1C03002000
:1010600038B50023054D044608462B60FFF7CCF940
:10107000431C02D12B6803B1236038BD1C03002040
:1010800038B50446084611460022054D2A601A4626
:10109000FFF7C4F9431C02D12B6803B1236038BDAC
:1010A0001C0300200148FFF708BE00BF0D0300200D
:1010B0000148FFF708BE00BF0D03002038B5044605
:1010C000084611460022054D2A601A46FFF749F9E5
:1010D000431C02D12B6803B1236038BD1C030020E0
:1010E00038B50C460968054609B1FFF7F9FF2146F6
:1010F0002846BDE83840FFF74DBE00002C4B70B5C8
:101100001B680446834251D0436A43B1DB68002B1D
:101110004AD1636A196811B12046FFF73BFE616945
:1011200011B12046FFF736FE616A11B12046FFF784
:1011300031FEA16B11B12046FFF72CFEE16B11B11E
:101140002046FFF727FE216C11B12046FFF722FE53
:10115000E16D11B12046FFF71DFEA16D11B12046D2
:10116000FFF718FE616B11B12046FFF713FEA3696C
:10117000E3B12046A36A9847A16CB9B12046BDE807
:101180007040FFF7ADBF495941B90435636A802DFE
:10119000D968F8D12046FFF7FDFDBAE70E68204672
:1011A000FFF7F8FD3146EFE70025EFE770BD00BF20
:1011B000180000203B3E0B3E103E253E333E033ED2
:1011C000063E143E0E3E0D3E243E123E273E023E9B
:1011D000183E093E0A3E0000E803000078000000C7
:1011E00057656C636F6D6520000000003B3E0B3E51
:1011F000103E253E333E033E063E143E0E3E0D3E5F
:10120000243E123E273E023E183E093E0A3E0000A2
:101210001C00002000000000000000000000000092
:1012200000000000000000000000000000000000BE
:1012300000000000000000000000000000000000AE
:10124000000000000000000000000000000000009E
:10125000000000000000000000000000000000008E
:10126000000000000000000000000000000000007E
:04127000000000007A
:0C127400F8B500BFF8BC08BC9E467047EF
:0C128000F8B500BFF8BC08BC9E467047E3
:04128C00000000005E
:08129000E0EEFF7F0100000009
:10129800000000007C000000001002400010014027
:1012A80000080140000300201C000020000000008E
:1012B800341200085412000814120008000000003C
:1012C8000000000000000000000000000000000016
:1012D8000000000000000000000000000000000006
:1012E80000000000000000000000000000000000F6
:1012F80000000000000000000000000000000000E6
:0C130800000000000000000000000000D9
:041314005501000877
:041318003101000897
:040000050800028568
:00000001FF
